:100000000C9462000C948A000C948A000C948A0070
:100010000C948A000C948A000C948A000C94350588
:100020000C948A000C948A000C948A000C948A0028
:100030000C948A000C948A000C948A000C948A0018
:100040000C94EB040C948A000C94B9040C94930463
:100050000C948A000C948A000C948A000C948A00F8
:100060000C948A000C948A000000000023002600F3
:10007000290000000000240027002A0000000000E2
:10008000250028002B0004040404040404040202D4
:100090000202020203030303030301020408102007
:1000A0004080010204081020010204081020000012
:1000B0000008000201000003040700000000000027
:1000C0000000120611241FBECFEFD8E0DEBFCDBF67
:1000D00011E0A0E0B1E0EAE6F2E202C005900D9284
:1000E000AA37B107D9F723E0AAE7B1E001C01D9212
:1000F000A330B207E1F710E0C2E6D0E004C02197D8
:10010000FE010E941E11C136D107C9F70E944406A4
:100110000C9433110C940000AF92BF92CF92DF92F7
:10012000EF92FF920F931F93CF93DF936C017B01AC
:100130008B01040F151FEB015E01AE18BF08C0173D
:10014000D10759F06991D601ED91FC910190F081B0
:10015000E02DC6010995892B79F7C501DF91CF9173
:100160001F910F91FF90EF90DF90CF90BF90AF90D5
:100170000895FC01538D448D252F30E0842F90E0AD
:10018000821B930B541710F0CF9608950197089592
:10019000FC01918D828D981761F0A28DAE0FBF2F5B
:1001A000B11D5D968C91928D9F5F9F73928F90E0B1
:1001B00008958FEF9FEF0895FC01918D828D981720
:1001C00031F0828DE80FF11D858D90E008958FEF5D
:1001D0009FEF0895FC01918D228D892F90E0805C26
:1001E0009F4F821B91098F739927089584E991E0AD
:1001F0000E94EA0021E0892B09F420E0822F089573
:1002000080E090E0892B29F00E94F60081110C9487
:1002100000000895FC01A48DA80FB92FB11DA35AA9
:10022000BF4F2C91848D90E001968F739927848F16
:10023000A689B7892C93A089B1898C918370806439
:100240008C93938D848D981306C00288F389E02DDA
:1002500080818F7D80830895EF92FF920F931F938B
:10026000CF93DF93EC0181E0888F9B8D8C8D981369
:100270001AC0E889F989808185FF15C09FB7F89475
:10028000EE89FF896083E889F989808183708064C1
:1002900080839FBF81E090E0DF91CF911F910F910C
:1002A000FF90EF900895F62E0B8D10E00F5F1F4F1B
:1002B0000F731127E02E8C8D8E110CC00FB607FC2A
:1002C000FACFE889F989808185FFF5CFCE010E94B8
:1002D0000A01F1CFEB8DEC0FFD2FF11DE35AFF4F1B
:1002E000F0829FB7F8940B8FEA89FB898081806246
:1002F000CFCFCF93DF93EC01888D8823B9F0AA8903
:10030000BB89E889F9898C9185FD03C0808186FDD0
:100310000DC00FB607FCF7CF8C9185FFF2CF80811F
:1003200085FFEDCFCE010E940A01E9CFDF91CF9189
:100330000895833081F028F4813099F08230A9F05B
:1003400008958730A9F08830C9F08430B1F48091E5
:1003500080008F7D03C0809180008F778093800024
:10036000089584B58F7784BD089584B58F7DFBCFC4
:100370008091B0008F778093B00008958091B00095
:100380008F7DF9CF1F93CF93DF93282F30E0F901B2
:10039000E255FF4F8491F901E656FF4FD491F901E0
:1003A000EA57FF4FC491CC23A9F0162F81110E9468
:1003B0009901EC2FF0E0EE0FFF1FE458FF4FA591DD
:1003C000B4918FB7F894EC91111108C0D095DE2349
:1003D000DC938FBFDF91CF911F910895DE2BF8CF73
:1003E000CF93DF9390E0FC01E656FF4F24918A57AC
:1003F0009F4FFC0184918823D1F090E0880F991FD2
:10040000FC01EE58FF4FA591B491FC01E458FF4F59
:10041000C591D49161110EC09FB7F8948C91E22FD1
:10042000E0958E238C932881E223E8839FBFDF91A0
:10043000CF9108958FB7F894EC91E22BEC938FBF96
:10044000F6CF1F93CF93DF93182FEB0161E00E944B
:10045000F001209739F460E0812FDF91CF911F9157
:100460000C94C201E12FF0E0E255FF4FE491E3303C
:1004700039F148F4E130B9F0E230E9F0C038D105A3
:1004800054F361E0E9CFE73029F1E83059F1E43085
:10049000A9F780918000806280938000D0938B00C8
:1004A000C0938A0004C084B5806884BDC7BDDF9155
:1004B000CF911F91089584B5806284BDC8BDF7CFE8
:1004C00080918000806880938000D0938900C093E1
:1004D0008800EDCF8091B00080688093B000C09319
:1004E000B300E5CF8091B00080628093B000C093EC
:1004F000B400DDCF3FB7F89480917F0190918001E7
:10050000A0918101B091820126B5A89B05C02F3F23
:1005100019F00196A11DB11D3FBFBA2FA92F982F29
:100520008827BC01CD01620F711D811D911D42E024
:10053000660F771F881F991F4A95D1F708958F92EC
:100540009F92AF92BF92CF92DF92EF92FF926B0198
:100550007C010E947A024B015C01C114D104E104C8
:10056000F104B9F00E947A02681979098A099B0995
:10057000683E73408105910580F321E0C21AD108DD
:10058000E108F10888EE880E83E0981EA11CB11CDA
:10059000E4CFFF90EF90DF90CF90BF90AF909F900F
:1005A0008F900895CF92DF92EF92FF92CF93DF93D7
:1005B000EC01072E000C880B990B0E94B00F6B0109
:1005C0007C0120E030E040E45FE30E94601020E026
:1005D00030E048E452E40E94060F0E94780FC617EC
:1005E000D707D4F020E030E040EA5FE3C701B6016E
:1005F0000E94601020E030E048E452E40E94060FC0
:1006000020E030E040E85FE30E94950E0E94780F02
:1006100021E06C177D070CF420E0822F90E0DF9141
:10062000CF91FF90EF90DF90CF9008958F929F929F
:10063000AF92BF92CF92DF92EF92FF920F931F93F0
:10064000CF93DF93FC0120813181E0919001F09103
:10065000910101E010E02E173F070CF045C0D901D1
:10066000AA0FBB1FE0918E01F0918F01EA0FFB1FD3
:10067000A080B1808901009510950170112720FD9F
:1006800027C02CE93FEFEA016B017C014901840E90
:10069000951EB401C5010E94D20221E030E0892BF1
:1006A000D1F48C0E9D1EB401C5010E94D20222E03D
:1006B00030E0892B81F4BE01680D791DC5010E94CF
:1006C000D20223E030E0892B31F40FEF1FEF0CC092
:1006D00024E630E0D8CFF60180819181019682171F
:1006E000930784F491838083C801DF91CF911F9198
:1006F0000F91FF90EF90DF90CF90BF90AF909F90C1
:100700008F90089511821082F70180819181019666
:10071000E9CFFC0101900020E9F73197AF01481BB8
:10072000590BBC0184E991E00C948C000F931F934A
:10073000CF93DF938C01C4E0D1E070E060E088816A
:100740000E94210270E060E08A850E94210261E03F
:100750008A810E94C20160E08C810E94C20161E036
:100760008E810E94C20160E088850E94C20166E914
:1007700070E088810E94210266E970E08A850E940B
:100780002102B801110F880B990B0E949F0270E0A3
:1007900060E088810E94210270E060E08A850E940A
:1007A000210288E291E0DF91CF911F910F910C948B
:1007B0008903CF93DF93C4E0D1E070E060E08881EB
:1007C0000E94210270E060E08A850E94210260E0C0
:1007D0008A810E94C20161E08C810E94C20160E0B6
:1007E0008E810E94C20161E088850E94C20166E993
:1007F00070E088810E94210266E970E08A850E948B
:10080000210264E670E080E090E00E949F0270E0C8
:1008100060E088810E94210270E060E08A850E9489
:10082000210281E391E0DF91CF910C948903CF9372
:10083000DF93C4E0D1E070E060E088810E94210293
:1008400070E060E08A850E94210261E08A810E9456
:10085000C20160E08C810E94C20160E08E810E9432
:10086000C20161E088850E94C20166E970E088816A
:100870000E94210266E970E08A850E94210264E6F6
:1008800070E080E090E00E949F0270E060E088816C
:100890000E94210270E060E08A850E9421028BE3C1
:1008A00091E0DF91CF910C948903CF93DF93C4E063
:1008B000D1E070E060E088810E94210270E060E099
:1008C0008A850E94210260E08A810E94C20161E063
:1008D0008C810E94C20161E08E810E94C20160E0B1
:1008E00088850E94C20166E970E088810E94210229
:1008F00066E970E08A850E94210264E670E080E08B
:1009000090E00E949F0270E060E088810E942102D6
:1009100070E060E08A850E94210289E491E0DF9125
:10092000CF910C9489031F920F920FB60F9211244E
:100930002F933F934F935F936F937F938F939F93E7
:10094000AF93BF93EF93FF9384E991E00E940A0174
:10095000FF91EF91BF91AF919F918F917F916F9197
:100960005F914F913F912F910F900FBE0F901F906D
:1009700018951F920F920FB60F9211242F938F93F9
:100980009F93EF93FF93E091A401F091A5018081E3
:10099000E091AA01F091AB0182FD1BC09081809192
:1009A000AD018F5F8F732091AE01821741F0E0910E
:1009B000AD01F0E0EC56FE4F958F8093AD01FF91B5
:1009C000EF919F918F912F910F900FBE0F901F90DD
:1009D00018958081F4CF1F920F920FB60F921124B9
:1009E0002F933F938F939F93AF93BF9380917B01FE
:1009F00090917C01A0917D01B0917E0130917A01AE
:100A000023E0230F2D3758F50196A11DB11D20932A
:100A10007A0180937B0190937C01A0937D01B09338
:100A20007E0180917F0190918001A0918101B09120
:100A300082010196A11DB11D80937F0190938001D9
:100A4000A0938101B0938201BF91AF919F918F914B
:100A50003F912F910F900FBE0F901F90189526E891
:100A6000230F0296A11DB11DD2CF1F920F920FB678
:100A70000F9211242F933F934F935F936F937F9324
:100A80008F939F93AF93BF93CF93DF93EF93FF9396
:100A90002091320230E0F901E255FF4F8491F901D3
:100AA000E656FF4FD491F901EA57FF4FC491CC238A
:100AB00079F081110E949901EC2FF0E0EE0FFF1FF9
:100AC000E859FF4FA591B491EC91ED2381E009F431
:100AD00080E020913602309137022F5F3F4F3093F4
:100AE00037022093360290913502953618F096E041
:100AF0009093310290913102943009F466C0B8F4B9
:100B00009230F1F0933009F444C09091340299236B
:100B100009F46BC081117CC080913302882309F4F1
:100B200063C08091330261E00E94C2015EC09530D3
:100B300009F457C0963049F791E0909302034FC0F3
:100B40008111E3CF209136023091370224363105EE
:100B500028F41092370210923602D7CF1092020377
:100B600010923502E091350291E09E0F909335028C
:100B7000F0E02091360230913702EE0FFF1FEF5C5C
:100B8000FD4F30872783109237021092360293E090
:100B900019C0813009F0B9CFE091350291E09E0F84
:100BA00090933502F0E02091360230913702EE0F3B
:100BB000FF1FEF5CFD4F30872783109237021092A2
:100BC000360294E090933102A0CF882359F220910D
:100BD0003602309137022536310508F496CF95E07C
:100BE000F1CF811192CFB5CF2D9AFF91EF91DF9187
:100BF000CF91BF91AF919F918F917F916F915F91B5
:100C00004F913F912F910F900FBE0F901F9018950D
:100C100080913302882321F08091330260E084CFF9
:100C20002D98E3CFE4E9F1E01382128288EE93E09D
:100C3000A0E0B0E084839583A683B7838AE191E046
:100C40009183808385EC90E09587848784EC90E0A5
:100C50009787868780EC90E0918B808B81EC90E089
:100C6000938B828B82EC90E0958B848B86EC90E06A
:100C7000978B868B118E128E138E148EE1E3F2E029
:100C80008BE0818313820895CF93DF93CDB7DEB7D6
:100C9000AB970FB6F894DEBF0FBECDBF789484B586
:100CA000826084BD84B5816084BD85B5826085BD68
:100CB00085B5816085BD80916E00816080936E00F6
:100CC00010928100809181008260809381008091E8
:100CD0008100816080938100809180008160809399
:100CE00080008091B10084608093B1008091B00059
:100CF00081608093B00080917A00846080937A0054
:100D000080917A00826080937A0080917A0081607D
:100D100080937A0080917A00806880937A001092A4
:100D2000C10061E0809106010E94F00161E08091C4
:100D300008010E94F00161E080910A010E94F00127
:100D400061E080910C010E94F00161E0809104015A
:100D50000E94F00161E080910E010E94F00161E0CB
:100D6000809110010E94F00161E0809112010E94C7
:100D7000F00161E0809114010E94F001E091A40172
:100D8000F091A50112E01083E091A001F091A10182
:100D90001082E091A201F091A3018FEC8083109268
:100DA000AC01E091A801F091A90186E08083E09177
:100DB000A601F091A701808180618083E091A60166
:100DC000F091A701808188608083E091A601F09175
:100DD000A701808180688083E091A601F091A7013E
:100DE00080818F7D808386E591E00E94890385E67E
:100DF00091E00E948903F8941093B0001093B10021
:100E000084E68093B3001092B2001093700078943F
:100E100010933102109235028091320260E00E94FC
:100E2000F00188E691E00E94890385E691E00E9446
:100E3000890344244A94542C3201A0E22A2E312CF6
:100E400088E392E090938F0180938E018091350228
:100E500090E090939101809390018091020390E043
:100E6000909393018093920180913102853009F033
:100E7000BAC380913A0290913B02885891098D350E
:100E8000910508F051C080913502843009F58091B8
:100E90003C0290913D0280974797D0F480913E02AA
:100EA00090913F020997099798F410928D01109242
:100EB0008C01409288015092890160928A0170925F
:100EC0008B0183E090E090938501809384015AC365
:100ED00080913502843440F180913C0290913D0232
:100EE000825491098E9700F590E080E040E050E058
:100EF000BA01FC01E25CFD4F2081318129503109AA
:100F00002930310588F4FC01E05CFD4F20813181FE
:100F1000275131092231310510F1208131812650CC
:100F200031092730310588F1809135028A3108F482
:100F300061C08091380290913902843F914050F510
:100F400010928D0110928C0140928801509289017B
:100F500060928A0170928B018BE090E0B4CF440FD5
:100F6000551F661F771F416004968038910509F66A
:100F700030928D0120928C01409388015093890119
:100F800060938A0170938B019CCF440F551F661F9D
:100F9000771FEACF80913A0290913B0285974B9759
:100FA00048F5E1E3F2E082E090E0C12CD12C76013B
:100FB0009C012F5F3F4F409135024217130609F005
:100FC0000CF4F6C04385548547505109473051050C
:100FD00008F0EDC025853685235131092F303105C4
:100FE00008F4D7C0258536852A50310929303105C6
:100FF00008F4D8C0809135028A3108F43FC080914E
:101000003802909139028032934008F499CF809150
:101010003A0290913B02C697869780F580913C02F8
:1010200090913D02C697869748F5E1E3F2E083E0B0
:1010300090E0C12CD12C76019C012F5F3F4F409155
:1010400035024217130609F00CF4DAC045855685BF
:101050004C5051094B30510508F0D1C027853089DB
:10106000255231092B31310508F4BBC02785308961
:101070002C5031092A30310508F4BCC0809135026A
:10108000823238F180913A0290913B02069707979D
:1010900000F5E1E3F2E082E090E040E050E0BA01E8
:1010A000DC011196209135022A171B0609F00CF479
:1010B000D3C0238534852E5131092731310508F4F9
:1010C000B6C0238534852C5031092B30310508F406
:1010D000BDC01BA21AA2E1E0F0E0FA83E98380918F
:1010E00035028D3008F4E9C049E753E0BE016E5D7A
:1010F0007F4FCE0101960E941603892B09F0DDC0B7
:1011000049E753E0BE016E5D7F4FCE0101960E941C
:101110001603019709F0D1C049E753E0BE016E5DA7
:101120007F4FCE0101960E9416038C01892B09F096
:10113000C4C0812C912C54012091350289819A815F
:101140002817190609F00CF4A9C049E753E0BE01BD
:101150006E5D7F4FCE0101960E9416037C0149E728
:1011600053E0BE016E5D7F4FCE0101960E941603D3
:10117000F1E0EF16F10409F088C0892B09F09DC059
:10118000880C991CAA1CBB1C689480F80F5F1F4F29
:10119000D3CFCC0CDD1CEE1CFF1C6894C0F802966B
:1011A000349606CFCC0CDD1CEE1CFF1CF8CFC90119
:1011B00001979595879590938D0180938C010C975D
:1011C0002CF410928D0110928C0114CFC0928801E2
:1011D000D0928901E0928A01F0928B0184E090E044
:1011E00072CECC0CDD1CEE1CFF1C6894C0F802967D
:1011F000349622CFCC0CDD1CEE1CFF1CF8CFC901AD
:1012000001979595879590938D0180938C010C970C
:101210002CF410928D0110928C0130CFC092880175
:10122000D0928901E0928A01F0928B0195CE440F11
:10123000551F661F771F41602585368534962350DC
:1012400031092530310538F402962ACF440F551F55
:10125000661F771FF1CFCD010197959587959093E4
:101260008D0180938C0140972CF410928D01109287
:101270008C012FCF409388015093890160938A019C
:1012800070938B018CE090E01ECEEF28B1F40197B3
:10129000A1F4880C991CAA1CBB1C78CF10938D015B
:1012A00000938C018092880190928901A0928A011A
:1012B000B0928B0181E090E006CE1BA21AA2A1E0C1
:1012C000B0E0BA83A98380919001909191011816A2
:1012D00019060CF07EC0E0918E01F0918F0182E042
:1012E00090E09A8389838281938189974E9708F051
:1012F00070C083E090E09A838983848195810B9705
:101300000A9708F066C04CEB51E0BE016E5D7F4F5E
:10131000CE0101960E9416038C01892B09F059C059
:101320004CEB51E0BE016E5D7F4FCE0101960E94F5
:101330001603019709F04DC0812C912C5401209186
:1013400090013091910189819A81821793070CF065
:10135000E2C04CEB51E0BE016E5D7F4FCE010196C5
:101360000E9416037C010330110539F14CEB51E06A
:10137000BE016E5D7F4FCE0101960E9416036C0187
:101380000330110561F44CEB51E0BE016E5D7F4FFF
:10139000CE0101960E941603C816D906D1F4E114B5
:1013A000F10409F4ABC0EA94EF2899F4CD2889F44C
:1013B000880C991CAA1CBB1CABC04CEB51E0BE01B5
:1013C0006E5D7F4FCE0101960E941603E816F90666
:1013D00069F2E0918E01F0918F0182819381C6972D
:1013E000869778F5848195814B97459750F5DF0175
:1013F00016967F0126ECE20EF11C20E030E040E082
:1014000050E060E070E080E090E00D911C91119759
:101410000950110908301105A0F412960D911C9184
:101420001397015111090D30110508F487C0129668
:101430000D911C911397045011090530110508F402
:10144000FEC080913502893380F182819381895772
:1014500091098335910548F584819581CA978997CB
:1014600020F59F012A5F3F4FC12CD12C760143E02C
:1014700050E0D9016D917C9111976A5071096930E2
:10148000710598F412966D917C91139766517109CC
:101490006131710508F4D7C012966D917C91665048
:1014A00071096730710508F4FDC080913502823200
:1014B00009F0FDC0828193810A97099708F0F7C06F
:1014C000A0913502B0E0A150B048AA0FBB1FAE0FEB
:1014D000BF1F8D919C910A97099708F0E8C0109260
:1014E0008D0110928C014092880150928901609286
:1014F0008A0170928B0186E090E0E5CCCA94CD28F9
:1015000009F067CF880C991CAA1CBB1C689480F852
:101510000F5F1F4F14CF10938D0100938C018092A9
:10152000880190928901A0928A01B0928B01E2E039
:10153000F0E0F0938501E093840124C001E00E9473
:10154000E81021601496AE15BF0509F05ECF209318
:1015500088013093890140938A0150938B0100E206
:101560000E940311209386013093870185E090E06B
:10157000909385018093840180E390E090938D01A6
:1015800080938C01009188011091890120918A013A
:1015900030918B0119A2CE018196B901A8014F703B
:1015A00055276627772754E0369527951795079591
:1015B0005A95D1F74A300CF005C3405DDC014E93DB
:1015C000CD01011511052105310539F7AB2B11F0BE
:1015D0000E94890385E691E00E94890382E080935E
:1015E0003102109235028091880190918901A09179
:1015F0008A01B0918B018D39E2E69E07EFEFAE07CD
:10160000B10509F0E1C281E08093830180918301FB
:10161000882309F448C384E690E00E9496038091F1
:10162000880190918901A0918A01B0918B0187393D
:101630009846AF4FB10551F710928301E7CF01E013
:101640000E94E8107FCFD701C601880F991FAA1FFB
:10165000BB1F6C017D016894C0F84E5F5F4F2C5F2B
:101660003F4F4B33510509F004CF9F012A583F4F9C
:10167000D9012D913C912A5031092930310508F0CA
:1016800014CF2CE130E030938D0120938C01C09277
:101690008801D0928901E0928A01F0928B018AE060
:1016A00090E011CCCC0CDD1CEE1CFF1CD6CF82814F
:1016B0009381895791098335910560F580913502B1
:1016C000813240F184819581CA97899718F59F01ED
:1016D0002A5F3F4FC12CD12C760143E050E0D90165
:1016E0006D917C9111976A5071096930710590F480
:1016F00012966D917C911397665171096131710554
:1017000080F112966D917C91665071096730710578
:1017100008F454C0828193818C549109C59708F0D4
:1017200081C080913502843009F04DC0848195815B
:101730008097479708F047C0868197810997099756
:1017400008F041C010928D0110928C0140928801E6
:101750005092890160928A0170928B0187E090E03B
:10176000B2CBD701C601880F991FAA1FBB1F6C01FE
:101770007D016894C0F84E5F5F4F2C5F3F4F43324E
:10178000510509F0ACCF9F012A5B3F4FD9012D9144
:101790003C912A5031092930310508F0BBCF20E1B6
:1017A00030E030938D0120938C01C0928801D0925B
:1017B0008901E0928A01F0928B019DCECC0CDD1C58
:1017C000EE1CFF1CD8CF80913502843458F18481FF
:1017D000958189549109C39728F59F012A5F3F4F4E
:1017E000BF016A577F4FC12CD12C7601D9014D9191
:1017F0005C911197495051094930510598F412965E
:101800004D915C911397465151094131510508F4AE
:10181000A2C012964D915C91465051094730510536
:1018200008F4B6C0809135028634C0F1828193817C
:101830000C970B9798F5848195810997099770F516
:10184000868197818C974F9748F5808591858997F8
:101850004D9720F59F01265F3F4FC12CD12C76017B
:1018600045E050E0D9016D917C9111976C50710960
:101870006B30710598F412966D917C9113976E51AF
:1018800071096731710508F488C012966D917C91D9
:10189000695071096930710508F4ACC08091350256
:1018A000883508F4B6C082819381855891098B35BB
:1018B000910508F0AEC084819581825491098E977C
:1018C00008F0A7C08F01045C1F4F8DE190E030E06D
:1018D00020E0409135024450550B8417950714F5CC
:1018E000A80142505109DA014D915C9149505109CA
:1018F0004830510508F08DC0BC016F5F7F4FD801A3
:101900004D915C911197475051094730510508F4AA
:1019100076C04D915C91485151094231510508F40E
:1019200075C0CB0101979595879590938D01809314
:101930008C018A970CF46DC0C901330FAA0BBB0B45
:101940008093880190938901A0938A01B0938B01C1
:1019500089E090E0B8CAD701C601880F991FAA1F75
:10196000BB1F6C017D016894C0F82C5F3F4F2617A8
:10197000370709F03BCF30928D0120928C01C09245
:101980008801D0928901E0928A01F0928B01E6CE23
:10199000CC0CDD1CEE1CFF1CE8CFD701C601880F64
:1019A000991FAA1FBB1F6C017D016894C0F84E5F90
:1019B0005F4F2C5F3F4F4534510509F053CF9F01D6
:1019C00026573F4FD9012D913C912C5031092B3096
:1019D000310508F063CF30928D0120928C01C092C6
:1019E0008801D0928901E0928A01F0928B0188E00F
:1019F00090E069CACC0CDD1CEE1CFF1CD8CF220F76
:101A0000331F216002960C5F1F4F63CF220F331FDD
:101A1000F9CF80913502803279F5828193810697E2
:101A2000069750F5848195810997099728F59F01BC
:101A30002A5F3F4FBF01625C7F4FC12CD12C7601E2
:101A4000D9014D915C91119746505109463051058D
:101A500098F412964D915C91139749515109433175
:101A6000510508F489C012964D915C914950510975
:101A70004930510508F4A1C08091900190919101E5
:101A80009FA38EA306970CF4A9CDDF011296BDA3E8
:101A9000ACA365ECC62E6DE9D62E6CE1E62E61E8AE
:101AA000F62E03E010E0ECA1FDA164817581A08019
:101AB000B18090E080E00E94AE0F68A779A78AA766
:101AC0009BA7B50190E080E00E94AE0F4B015C0146
:101AD0002DEC3CEC4CE45FE30E9460109B01AC01F8
:101AE00068A579A58AA59BA50E94010FF0E0E0E01A
:101AF00087FD16C02DEC3CEC4CE45FE368A579A5AE
:101B00008AA59BA50E9460109B01AC01C501B40190
:101B10000E94010FE2E0F0E087FD02C0E1E0F0E0AA
:101B2000A701960163E971E080E091E00E94CD1089
:101B30006F01FF0FEE08FF08C626D726E826F92614
:101B40000F5F1F4F8CA19DA102969DA38CA3AEA1F8
:101B5000BFA1A017B10709F0A6CFC0928801D0920B
:101B60008901E0928A01F0928B0130928D012092DE
:101B70008C01EFEFFFEFDDCCD701C601880F991F75
:101B8000AA1FBB1F6C017D016894C0F82C5F3F4FFA
:101B90006217730709F054CFEEE0F0E0F0938D0187
:101BA000E0938C01C0928801D0928901E0928A0171
:101BB000F0928B018FE090E086C9CC0CDD1CEE1C0E
:101BC000FF1CE4CF495CFACC873528EA92072FEF57
:101BD000A207B105D1F481E0809383018091830154
:101BE000882309F460C00E94D903809188019091F4
:101BF0008901A0918A01B0918B0187399846AF4F36
:101C0000B10561F710928301E9CF8D33F2EC9F07A4
:101C1000FFEFAF07B105D1F481E08093830180919C
:101C20008301882309F43FC00E9417048091880132
:101C300090918901A0918A01B0918B0187399846D2
:101C4000AF4FB10561F710928301E9CF8D3DE2E21C
:101C50009E07EFEFAE07B105C9F481E080938301E1
:101C6000809183018823F9F00E94550480918801B6
:101C700090918901A0918A01B0918B018739984692
:101C8000AF4FB10569F710928301EACF85382AE793
:101C900092072FEFA207B10599F484EF91E090939A
:101CA00001018093000180E090E0892B09F4C8C80D
:101CB0000E94F600882309F4C0C80E940000BDC835
:101CC000873EE8E19E07EFEFAE07B10519F48AEF12
:101CD00090E0E5CF8F3CF0E39F07FFEFAF07B10542
:101CE00019F484E690E0DBCF8F3420EB92072FEFDE
:101CF000A207B10539F484EF91E09093030180933A
:101D00000201D1CF8736E8E99E07EFEFAE07B105B4
:101D100019F48EE591E0F1CF87399846AF4FB105C0
:101D200011F688EC90E0E9CF5058BB27AA270E9413
:101D3000AC0E0C9426100E94181038F00E941F1050
:101D400020F039F49F3F19F426F40C9415100EF48A
:101D5000E095E7FB0C940F10E92F0E94371058F321
:101D6000BA17620773078407950720F079F4A6F580
:101D70000C9459100EF4E0950B2EBA2FA02D0B01E8
:101D8000B90190010C01CA01A0011124FF27591BC0
:101D900099F0593F50F4503E68F11A16F040A22FC6
:101DA000232F342F4427585FF3CF46953795279537
:101DB000A795F0405395C9F77EF41F16BA0B620B36
:101DC000730B840BBAF09150A1F0FF0FBB1F661F7D
:101DD000771F881FC2F70EC0BA0F621F731F841FC0
:101DE00048F4879577956795B795F7959E3F08F0E6
:101DF000B0CF9395880F08F09927EE0F97958795A8
:101E000008950E94EB0F08F481E008950E941A0FD4
:101E10000C9426100E941F1058F00E94181040F0D9
:101E200029F45F3F29F00C940F1051110C945A10B3
:101E30000C9415100E94371068F39923B1F35523C1
:101E400091F3951B550BBB27AA27621773078407CD
:101E500038F09F5F5F4F220F331F441FAA1FA9F363
:101E600035D00E2E3AF0E0E832D091505040E69551
:101E7000001CCAF72BD0FE2F29D0660F771F881FB2
:101E8000BB1F261737074807AB07B0E809F0BB0BA5
:101E9000802DBF01FF2793585F4F3AF09E3F5105B9
:101EA00078F00C940F100C945A105F3FE4F3983EB6
:101EB000D4F3869577956795B795F7959F5FC9F7A2
:101EC000880F911D9695879597F90895E1E0660F23
:101ED000771F881FBB1F621773078407BA0720F09C
:101EE000621B730B840BBA0BEE1F88F7E095089505
:101EF0000E947F0F6894B1110C945A1008950E94AB
:101F00003F1088F09F5798F0B92F9927B751B0F03C
:101F1000E1F0660F771F881F991F1AF0BA95C9F76D
:101F200014C0B13091F00E945910B1E008950C94A2
:101F30005910672F782F8827B85F39F0B93FCCF355
:101F4000869577956795B395D9F73EF490958095EA
:101F5000709561957F4F8F4F9F4F0895E89409C00A
:101F600097FB3EF490958095709561957F4F8F4FCC
:101F70009F4F9923A9F0F92F96E9BB279395F695E2
:101F8000879577956795B795F111F8CFFAF4BB0F60
:101F900011F460FF1BC06F5F7F4F8F4F9F4F16C0C4
:101FA000882311F096E911C0772321F09EE8872F4E
:101FB000762F05C0662371F096E8862F70E060E00A
:101FC0002AF09A95660F771F881FDAF7880F969583
:101FD000879597F90895990F0008550FAA0BE0E827
:101FE000FEEF16161706E807F907C0F012161306DB
:101FF000E407F50798F0621B730B840B950B39F41B
:102000000A2661F0232B242B252B21F408950A2680
:1020100009F4A140A6958FEF811D811D089597F9C0
:102020009F6780E870E060E008959FEF80EC08957E
:1020300000240A94161617061806090608950024A7
:102040000A9412161306140605060895092E039421
:10205000000C11F4882352F0BB0F40F4BF2B11F495
:1020600060FF04C06F5F7F4F8F4F9F4F089557FDF4
:102070009058440F551F59F05F3F71F04795880FF6
:1020800097FB991F61F09F3F79F08795089512168D
:1020900013061406551FF2CF4695F1DF08C0161639
:1020A00017061806991FF1CF8695710561050894EA
:1020B0000895E894BB2766277727CB0197F9089501
:1020C0000E9473100C9426100E94181038F00E9481
:1020D0001F1020F0952311F00C940F100C94151084
:1020E00011240C945A100E94371070F3959FC1F37D
:1020F000950F50E0551F629FF001729FBB27F00DB6
:10210000B11D639FAA27F00DB11DAA1F649F66270A
:10211000B00DA11D661F829F2227B00DA11D621F59
:10212000739FB00DA11D621F839FA00D611D221F13
:10213000749F3327A00D611D231F849F600D211DF7
:10214000822F762F6A2F11249F5750409AF0F1F07A
:1021500088234AF0EE0FFF1FBB1F661F771F881FE3
:1021600091505040A9F79E3F510580F00C940F10FC
:102170000C945A105F3FE4F3983ED4F3869577951C
:102180006795B795F795E7959F5FC1F7FE2B880F89
:10219000911D9695879597F90895DB018F939F93ED
:1021A0000E94DD10BF91AF91A29F800D911DA39F52
:1021B000900DB29F900D112408950E942411A59FA7
:1021C000900DB49F900DA49F800D911D1124089532
:1021D000002E083090F0982F872F762F652F542FE0
:1021E000432F322F22270850F4CF220F331F441FD2
:1021F000551F661F771F881F991F0A95B2F7002D7C
:10220000089597FD1094002E083098F00850232F61
:10221000342F452F562F672F782F892F912DF4CFEC
:102220001594979587957795679557954795379521
:1022300027950A95AAF71124002D0895EE0FFF1F88
:102240000590F491E02D0994A29FB001B39FC001C5
:10225000A39F700D811D1124911DB29F700D811DD2
:0A2260001124911D0895F894FFCF9A
:10226A0096002C010400030002000A00090008007D
:10227A000B000C000000000000002C018C00B900CB
:10228A007901EA00C800DC00666F727761726473D4
:10229A00006261636B77617264730074776F576869
:1022AA0065656C52696768740074776F576865650D
:1022BA006C4C65667400456E6162656C696E672078
:1022CA004952696E000D0A00456E61626C656420B0
:0A22DA00746865204952696E000027
:107E0000112484B714BE81FFF0D085E080938100F7
:107E100082E08093C00088E18093C10086E0809377
:107E2000C20080E18093C4008EE0C9D0259A86E02C
:107E300020E33CEF91E0309385002093840096BBD3
:107E4000B09BFECF1D9AA8958150A9F7CC24DD24C4
:107E500088248394B5E0AB2EA1E19A2EF3E0BF2EE7
:107E6000A2D0813461F49FD0082FAFD0023811F036
:107E7000013811F484E001C083E08DD089C08234E0
:107E800011F484E103C0853419F485E0A6D080C0E4
:107E9000853579F488D0E82EFF2485D0082F10E0AE
:107EA000102F00270E291F29000F111F8ED06801E7
:107EB0006FC0863521F484E090D080E0DECF843638
:107EC00009F040C070D06FD0082F6DD080E0C81688
:107ED00080E7D80618F4F601B7BEE895C0E0D1E017
:107EE00062D089930C17E1F7F0E0CF16F0E7DF06D8
:107EF00018F0F601B7BEE89568D007B600FCFDCFD4
:107F0000A601A0E0B1E02C9130E011968C91119780
:107F100090E0982F8827822B932B1296FA010C0160
:107F200087BEE89511244E5F5F4FF1E0A038BF0790
:107F300051F7F601A7BEE89507B600FCFDCF97BE46
:107F4000E89526C08437B1F42ED02DD0F82E2BD052
:107F50003CD0F601EF2C8F010F5F1F4F84911BD097
:107F6000EA94F801C1F70894C11CD11CFA94CF0C13
:107F7000D11C0EC0853739F428D08EE10CD085E9AC
:107F80000AD08FE07ACF813511F488E018D01DD067
:107F900080E101D065CF982F8091C00085FFFCCF94
:107FA0009093C60008958091C00087FFFCCF809118
:107FB000C00084FD01C0A8958091C6000895E0E648
:107FC000F0E098E1908380830895EDDF803219F02E
:107FD00088E0F5DFFFCF84E1DECF1F93182FE3DFCA
:107FE0001150E9F7F2DF1F91089580E0E8DFEE27F6
:047FF000FF270994CA
:027FFE00040479
:0400000300007E007B
:00000001FF
